S023000064657369676E5F61737369676E6D656E745F32635F54315F3241322E7372656313
S11300000C945A000C9464000C9464000C946400E6
S11300100C9464000C9464000C9464000C946400CC
S11300200C9464000C9464000C9464000C946400BC
S11300300C9464000C9464000C9464000C946400AC
S11300400C9464000C9464000C9464000C9464009C
S11300500C9464000C9464000C9464000C9464008C
S11300600C9464000C9464000C9464000C9464007C
S11300700C9464000C9464000C9464000C9464006C
S11300800C9464000C9464000C9464000C9464005C
S11300900C9464000C9464000C9464000C9464004C
S11300A00C9464000C9464000C9464000C9464003C
S11300B00C94640011241FBECFEFD8E0DEBFCDBF87
S11300C00E9466000C947E000C94000087B1887036
S11300D087B9439A229A90E014BC85B5846085BDA3
S11300E016BCA89BFECF15BCA89A3299F5CF2A98C6
S11300F0983C10F49F5FF0CF2A9AEECFF894FFCF8C
S9030000FC
