:100000000C945A000C946C000C94AB000C946C0093
:100010000C946C000C946C000C946C000C946C00B0
:100020000C946C000C946C000C946C000C946C00A0
:100030000C946C000C946C000C946C000C946C0090
:100040000C946C000C946C000C946C000C946C0080
:100050000C946C000C946C000C946C000C946C0070
:100060000C946C000C946C000C946C000C946C0060
:100070000C946C000C946C000C946C000C946C0050
:100080000C946C000C946C000C946C000C946C0040
:100090000C946C000C946C000C946C000C946C0030
:1000A0000C946C000C946C000C946C000C946C0020
:1000B0000C946C0011241FBECFEFD8E0DEBFCDBF83
:1000C00021E0A0E0B1E001C01D92A430B207E1F749
:1000D0000E9475000C94D4000C94000080E480937E
:1000E0007C0087EE80937A0008958BEF87B918B86B
:1000F00082E08DBB8CBB8CE08093690078940E9479
:100100006E0083E884BD83E085BDEAE7F0E0C8E7E0
:10011000D0E040E5808184FFFDCF88819981489FB0
:100120009001499F300D11243695279536952795D6
:10013000ABE7B4E10E94C5009695879590930301C3
:100140008093020187BD8091000190910101892B6C
:1001500009F718B8DFCF1F920F920FB60F92112434
:100160002F938F939F93809100019091010121E043
:10017000822790930101809300019F918F912F918D
:100180000F900FBE0F901F901895A29FB001B39FC4
:10019000C001A39F700D811D1124911DB29F700D90
:0C01A000811D1124911D0895F894FFCFDB
:00000001FF
