S022000044657369676E5F41737369676E6D656E745F34425F7461736B322E7372656317
S11300000C945A000C9464000C9464000C946400E6
S11300100C9464000C9464000C9464000C946400CC
S11300200C9464000C9464000C9464000C946400BC
S11300300C9464000C9464000C9464000C946400AC
S11300400C9464000C9464000C9464000C9464009C
S11300500C9464000C9464000C9464000C9464008C
S11300600C9464000C9464000C9464000C9464007C
S11300700C9464000C9464000C9464000C9464006C
S11300800C9464000C9464000C9464000C9464005C
S11300900C9464000C9464000C9464000C9464004C
S11300A00C9464000C9464000C9464000C9464003C
S11300B00C94640011241FBECFEFD8E0DEBFCDBF87
S11300C00E9466000C94AE000C940000E0E8F0E09E
S11300D08081826A8083E1E8F0E080818B618083A3
S11300E087E893E19093870080938600219AE8E85B
S11300F0F0E061E670E04CE351E029EA31E087E1A9
S113010092E071836083AFEFB3ECC9E0A150B040DB
S1130110C040E1F700C0000051834083AFEFB3EC6F
S1130120C9E0A150B040C040E1F700C000003183F5
S11301302083AFEFB3ECC9E0A150B040C040E1F779
S113014000C0000091838083AFEFB3ECC9E0A150FD
S1130150B040C040E1F700C00000D3CFF894FFCF17
S9030000FC
