S01100006D69647465726D5F312E7372656391
S11300000C945A000C9477000C9477000C947700AD
S11300100C9477000C9477000C9477000C94770080
S11300200C9477000C9477000C9477000C94770070
S11300300C9477000C9477000C9477000C94770060
S11300400C9477000C9477000C9477000C94770050
S11300500C9477000C9477000C9477000C94770040
S11300600C9477000C9477000C9477000C94770030
S11300700C9477000C9477000C9477000C94770020
S11300800C9477000C9477000C9477000C94770010
S11300900C9477000C9477000C9477000C94770000
S11300A00C9477000C9477000C9477000C947700F0
S11300B00C94770011241FBECFEFD8E0DEBFCDBF74
S11300C011E0A0E0B1E0E4E6F6E002C005900D9294
S11300D0A63BB107D9F721E0A6EBB1E001C01D9220
S11300E0A73BB207E1F70E942A010C9430030C9459
S11300F0000084E480937C0085E880937A0008956E
S11301001092C50080E18093C40082E08093C00017
S113011088E18093C10086E08093C2000895E0ECFA
S1130120F0E0908195FFFDCF8093C6000895CF93B2
S1130130DF93EC018881882331F021960E948F009F
S113014089918111FBCFEAE7F0E0808180648083AC
S1130150808184FFFDCFEAE7F0E0808180618083C5
S1130160609178008091790070E0782B072E000C64
S1130170880B990B0E940F0220E030E040E85AE31C
S11301800E949B0220E030E44CE955E40E949B026B
S113019020E030E040E251E40E9465010E94D70172
S11301A0605F7F4FEB01CC0FDD1F80E091E00E9488
S11301B097002FEF89E698E1215080409040E1F7C5
S11301C000C000008CE291E00E9497002FEF89E6C6
S11301D098E1215080409040E1F700C000008CE39A
S11301E091E00E9497002FEF89E698E1215080402A
S11301F09040E1F700C00000CE0164E670E00E9488
S113020008036AE070E00E940803C82F80E3860FA9
S11302100E948F0080E38C0F0E948F002FEF89E6ED
S113022098E1215080409040E1F700C000008AE04E
S11302300E948F002FEF89E698E121508040904082
S1130240E1F700C000001092B60180E186BDDF91A5
S1130250CF9108950E9479000E94800085E691E084
S11302600E9497002FEF89E698E12150804090404A
S1130270E1F700C000008AE691E00E9497002FEFAA
S113028089E698E1215080409040E1F700C00000E9
S113029088E791E00E9497002FEF89E698E12150CA
S11302A080409040E1F700C0000087EA91E00E949E
S11302B097002FEF89E698E1215080409040E1F7C4
S11302C000C0000080E090E008950E9479010C9441
S11302D061020E945A0258F00E94530240F029F42D
S11302E05F3F29F00C944A0251110C9495020C942E
S11302F050020E94720268F39923B1F3552391F3DB
S1130300951B550BBB27AA2762177307840738F080
S11303109F5F5F4F220F331F441FAA1FA9F335D0DD
S11303200E2E3AF0E0E832D091505040E695001C91
S1130330CAF72BD0FE2F29D0660F771F881FBB1F4B
S1130340261737074807AB07B0E809F0BB0B802D29
S1130350BF01FF2793585F4F3AF09E3F510578F055
S11303600C944A020C9495025F3FE4F3983ED4F354
S1130370869577956795B795F7959F5FC9F7880F29
S1130380911D9695879597F90895E1E0660F771F7B
S1130390881FBB1F621773078407BA0720F0621B0C
S11303A0730B840BBA0BEE1F88F7E09508950E9437
S11303B0DE016894B1110C94950208950E947A02AA
S11303C088F09F5798F0B92F9927B751B0F0E1F012
S11303D0660F771F881F991F1AF0BA95C9F714C0C2
S11303E0B13091F00E949402B1E008950C9494020B
S11303F0672F782F8827B85F39F0B93FCCF38695FB
S113040077956795B395D9F73EF490958095709557
S113041061957F4F8F4F9F4F0895E89409C097FBD4
S11304203EF490958095709561957F4F8F4F9F4FC7
S11304309923A9F0F92F96E9BB279395F69587950B
S113044077956795B795F111F8CFFAF4BB0F11F4CE
S113045060FF1BC06F5F7F4F8F4F9F4F16C0882375
S113046011F096E911C0772321F09EE8872F762FAB
S113047005C0662371F096E8862F70E060E02AF0EC
S11304809A95660F771F881FDAF7880F96958795D8
S113049097F9089597F99F6780E870E060E0089500
S11304A09FEF80EC089500240A9416161706180688
S11304B00906089500240A94121613061406050664
S11304C00895092E0394000C11F4882352F0BB0FF5
S11304D040F4BF2B11F460FF04C06F5F7F4F8F4F58
S11304E09F4F089557FD9058440F551F59F05F3F93
S11304F071F04795880F97FB991F61F09F3F79F042
S113050087950895121613061406551FF2CF4695C3
S1130510F1DF08C0161617061806991FF1CF869545
S11305207105610508940895E894BB276627772729
S1130530CB0197F908950E94AE020C9461020E94C7
S1130540530238F00E945A0220F0952311F00C94C3
S11305504A020C94500211240C9495020E947202D7
S113056070F3959FC1F3950F50E0551F629FF00102
S1130570729FBB27F00DB11D639FAA27F00DB11D1B
S1130580AA1F649F6627B00DA11D661F829F2227A4
S1130590B00DA11D621F739FB00DA11D621F839F2B
S11305A0A00D611D221F749F3327A00D611D231F01
S11305B0849F600D211D822F762F6A2F11249F574F
S11305C050409AF0F1F088234AF0EE0FFF1FBB1F52
S11305D0661F771F881F91505040A9F79E3F510511
S11305E080F00C944A020C9495025F3FE4F3983E29
S11305F0D4F3869577956795B795F795E7959F5FBB
S1130600C1F7FE2B880F911D9695879597F908954C
S113061097FB072E16F4009407D077FD09D00E94AB
S11306201C0307FC05D03EF4909581959F4F0895D7
S1130630709561957F4F0895AA1BBB1B51E107C0BC
S1130640AA1FBB1FA617B70710F0A61BB70B881F5E
S1130650991F5A95A9F780959095BC01CD010895ED
S1070660F894FFCF38
S113066441542B43495053544152543D2254435012
S1130674222C226170692E7468696E6773706561D7
S11306846B2E636F6D222C38300D0A0041542B43BA
S1130694495053454E443D35310D0A0047455420D5
S11306A42F7570646174653F6B65793D51544A33A9
S11306B431485149304B52305135415026666965B1
S11306C46C64313D0041540D0A0041542B43574D91
S11306D44F44453D330D0A0041542B43574A41507E
S11306E43D22574946495F4E414D455F4845524571
S11306F4222C22574946495F50415353574F524481
S11307045F48455245220041542B4349504D5558A6
S10907143D300D0A000057
S9030000FC
