:100000000C945A000C9479000C9477000C947700AF
:100010000C9477000C9477000C9477000C94770084
:100020000C9477000C9477000C9477000C94770074
:100030000C9477000C9477000C9477000C94770064
:100040000C9477000C9477000C9477000C94770054
:100050000C9477000C9477000C9477000C94770044
:100060000C9477000C9477000C9477000C94770034
:100070000C9477000C9477000C9477000C94770024
:100080000C9477000C9477000C9477000C94770014
:100090000C9477000C9477000C9477000C94770004
:1000A0000C9477000C9477000C9477000C947700F4
:1000B0000C94770011241FBECFEFD8E0DEBFCDBF78
:1000C00012E0A0E0B1E0E2E4FFE002C005900D9292
:1000D000A637B107D9F722E0A6E7B2E001C01D922A
:1000E000AA3AB207E1F70E942A010C949F070C94E8
:1000F00000001F920F920FB60F9211248F9381E090
:10010000809377028F910F900FBE0F901F901895DC
:10011000CF93DF931F92CDB7DEB786E291E00E94C6
:10012000970484E591E00E94970441E050E0BE010D
:100130006F5F7F4F80E00E94DF0189811F928F9364
:1001400080E891E09F938F930E94810441E050E00A
:10015000BE016F5F7F4F81E00E94DF0189811F92A6
:100160008F938EE891E09F938F930E94810441E0EA
:1001700050E0BE016F5F7F4F82E00E94DF01898106
:100180001F928F938CE991E09F938F930E9481043B
:1001900041E050E0BE016F5F7F4F84E00E94DF01CD
:1001A00089811F928F938DEA91E09F938F930E9494
:1001B000810441E050E0BE016F5F7F4F85E00E9407
:1001C000DF0189811F928F938FEB91E09F938F9333
:1001D0000E94810441E050E0BE016F5F7F4F86E0E6
:1001E0000E94DF0189811F928F938DEC91E09F9394
:1001F0008F930E94810441E050E0BE016F5F7F4F0A
:1002000087E00E94DF0189811F928F938DED91E03D
:100210009F938F930E94810441E050E0BE016F5F85
:100220007F4F8DE10E94DF0189811F928F938BEEBA
:1002300091E09F938F930E9481040FB6F894DEBFE4
:100240000FBECDBF8AEF91E00E9497040F90DF911F
:10025000CF910895CF93DF93CDB7DEB7AA970FB6AE
:10026000F894DEBF0FBECDBFECE7F0E08081806484
:10027000808380818062808383EE80937A000E94F5
:1002800037040E94E2010E9488000E94070385E073
:10029000E7E2F2E0DE01119601900D928A95E1F716
:1002A000CE0101960E9412030F2EF9E7CF2ED12C1A
:1002B000F02D7E012BE2E20EF11C8E010F5D1F4F2F
:1002C0000F2EFCE2AF2EF2E0BF2EF02D802E912EED
:1002D00077247394F601808190E0880F991F4096EF
:1002E000880F80939802809198024AE050E0682D30
:1002F000792D90E00E945104FE01B196DF01A01B10
:10030000B10B8191A756BD4F8C93EE15FF05B1F748
:10031000809177028823F1F2109277020E94CF0336
:100320009F938F93BF92AF920E948104FFEF29E6C3
:1003300088E1F15020408040E1F700C0000089E9E9
:1003400092E00E941203972D0F900F900F900F9044
:10035000811101C090E0909376028091760288230B
:1003600009F4B8CF82E492E00E949704B3CFDF9201
:10037000EF92FF920F931F93CF93DF937B018A013C
:100380002A980E941604D82E0115110551F0E70194
:100390000E0D1F1D88810E9416048993C017D10776
:1003A000C9F72A9A8D2DDF91CF911F910F91FF9060
:1003B000EF90DF90089580620E94B70108950E9437
:1003C000B70108950F931F93CF93DF931F92CDB77B
:1003D000DEB7F894E9E6F0E0808182608083E89AF5
:1003E0007894219A229A2A9A29980E9407042FEF3A
:1003F00081EE94E0215080409040E1F700C0000081
:100400000FE30093A30241E050E063EA72E080E072
:100410000E94DB011092A30241E050E063EA72E027
:1004200081E00E94DB0180EF8093A30241E050E075
:1004300063EA72E084E00E94DB011092A30241E0D3
:1004400050E063EA72E082E00E94DB0184E780937F
:10045000A30241E050E063EA72E085E00E94DB0124
:100460008EE08093A30241E050E063EA72E086E010
:100470000E94DB0110E71093A30241E050E063EA21
:1004800072E087E00E94DB010093A30241E050E0AC
:1004900063EA72E08CE10E94DB0184E08093A302B6
:1004A00041E050E063EA72E08DE10E94DB011983D4
:1004B00040E050E060E070E082EE0E94DB0140E04E
:1004C00050E060E070E081EE0E94DB0145E050E02A
:1004D00060E071E08AE00E94DB0145E050E065E009
:1004E00071E080E10E94DB0141E050E0BE016F5FFE
:1004F0007F4F82E00E94DB0189818160898341E036
:1005000050E0BE016F5F7F4F82E00E94DB010F90E1
:10051000DF91CF911F910F9108951F93CF93DF9398
:100520001F92CDB7DEB7182F41E050E0BE016F5FDC
:100530007F4F80E00E94DF01133071F128F4113009
:1005400059F01230E9F05EC0153009F447C0D0F11F
:10055000163009F445C056C0898181FD53C08260C0
:100560008093A30241E050E063EA72E080E00E94E1
:10057000DB018FE39FE10197F1F700C0000042C06B
:1005800089818D7F8093A30241E050E063EA72E0AD
:1005900080E00E94DB0136C0898181608093A302E4
:1005A00041E050E063EA72E080E00E94DB0180E716
:1005B0008093A30241E050E063EA72E087E00E948A
:1005C000DB0120C089818E7F8093A30241E050E04F
:1005D00063EA72E080E00E94DB0114C0299812C037
:1005E00089818E7F8093A30241E050E063EA72E04C
:1005F00080E00E94DB01299A87E592E00197F1F7FC
:1006000000C000000F90DF91CF911F91089583E00B
:100610000E948D02299A87E592E00197F1F700C0C8
:1006200000000895CF92DF92EF92FF920F931F93F5
:10063000CF93DF93CDB7DEB7A0970FB6F894DEBFA8
:100640000FBECDBF6C016894FF24F5F8CE01019672
:10065000FC012F2D11922A95E9F7B6010E944A0458
:10066000F60101900020E9F731978F010C191D095F
:1006700084E00E948D0240E050E060E070E082EE95
:100680000E94DB0140E050E060E070E081EE0E94FB
:10069000DB01F092A30241E050E063EA72E087E000
:1006A0000E94DB0141E050E063EA72E080E00E94DA
:1006B000DF018091A30280648093A30241E050E0B7
:1006C00063EA72E080E00E94DB012A9880EB0E94DE
:1006D0001104EFEFE00F002381F08601EE2EF12CE4
:1006E000F70131967601EE0EFF1EF80181918F0120
:1006F0000E9411040E151F05C1F780E00E9411042D
:100700002A9A299AF0E5FA95F1F7299841E050E004
:1007100063EA72E087E00E94DF018091A30285FD19
:100720000BC041E050E063EA72E087E00E94DF0125
:100730008091A30285FFF5CFCE0101969F938F9301
:100740008CE592E09F938F930E94810441E050E0FA
:1007500063EA72E080E00E94DF018091A3028F7B58
:100760008093A30241E050E063EA72E080E00E94DF
:10077000DB010E9407030F900F900F900F9081E014
:10078000A0960FB6F894DEBF0FBECDBFDF91CF911C
:100790001F910F91FF90EF90DF90CF90089580E22E
:1007A000E8E7F2E0DF011D928A95E9F741E050E0C9
:1007B00063EA72E080E60E94DF014091A3024423D5
:1007C00041F050E04F5F5F4F68E772E081E60E94C2
:1007D000B70180917802882369F080E48093A302B6
:1007E00041E050E063EA72E087E00E94DB0188E7C5
:1007F00092E0089580E48093A30241E050E063EA30
:1008000072E087E00E94DB018EE692E00895249872
:1008100084B1886284B980E58CBD8DB581608DBD61
:1008200008958EBD0DB407FEFDCF08958EBD0DB4A5
:1008300007FEFDCF8EB50895CF93C82F8A3019F4E7
:100840008DE00E941C04E0ECF0E0808185FFFDCF8C
:10085000C093C60080E090E0CF910895E0ECF0E016
:1008600080818823ECF78091C60090E00895109273
:10087000C50087E68093C40088E18093C100E4EA64
:10088000F2E088E191E0938382838AE091E09183B2
:1008900080830895FB01DC0101900D920020E1F7B7
:1008A00008954532510520F4423010F00C945C0458
:1008B000FB011082CB010895BB274A3031F4992304
:1008C00022F4BDE2909581959F4F0C946804BB275C
:1008D000FB015527AA27880F991FAA1FA41710F0FC
:1008E000A41B83955051B9F7A05DAA3308F0A95D08
:1008F000A193009779F7B111B1931192CB010C94A8
:10090000BE06A0E0B0E0E7E8F4E00C947807AE01A2
:100910004B5F5F4FFA0161917191AF018091A60227
:100920009091A7020E94C704E2E00C9494070F93F1
:100930001F93CF93DF93E091A602F091A70223814A
:1009400021FF1BC08C01D0E0C0E0F80181918F0134
:100950006091A6027091A702DB011896ED91FC91BF
:100960001997882331F00995892B79F3DFEFCFEFC1
:10097000ECCF8AE00995892B19F08FEF9FEF02C029
:100980008D2F9C2FDF91CF911F910F910895ABE098
:10099000B0E0EDECF4E00C9468076C017B018A0197
:1009A000FC0117821682838181FFCCC1CE010196A2
:1009B0003C01F6019381F70193FD859193FF8191AD
:1009C0007F01882309F4BAC1853239F493FD8591FA
:1009D00093FF81917F01853229F4B60190E00E9456
:1009E000CE06E7CF912C212C312CFFE1F315D8F066
:1009F0008B3279F038F4803279F08332A1F4232DF0
:100A000020611DC08D3261F0803369F4232D216097
:100A100016C0832D8260382EE32DE4603E2E2AC05E
:100A2000F32DF8601DC037FC2DC020ED280F2A30B3
:100A300040F08E32B9F436FC81C1232D2064322E71
:100A400019C036FE06C08AE0989E200D1124922E11
:100A500011C0EAE02E9E200D1124222EF32DF0620B
:100A60003F2E08C08C3621F4832D8068382E02C0BA
:100A7000883641F4F70193FD859193FF81917F01C1
:100A80008111B3CF982F9F7D9554933028F40C5F3C
:100A90001F4F9FE399830DC0833631F0833771F088
:100AA000833509F059C021C0F801808189830E5F28
:100AB0001F4F88248394912C530113C02801F2E026
:100AC0004F0E511CF801A080B18036FE03C0692D85
:100AD00070E002C06FEF7FEFC5010E94B3064C01CA
:100AE0008201F32DFF773F2E16C0280122E0420E2F
:100AF000511CF801A080B18036FE03C0692D70E062
:100B000002C06FEF7FEFC5010E94A8064C01F32DD4
:100B1000F0683F2E820133FC1BC0822D90E08816C6
:100B20009906B0F4B60180E290E00E94CE062A94C5
:100B3000F4CFF50137FC859137FE81915F01B60155
:100B400090E00E94CE0621102A9421E0821A91089A
:100B50008114910471F7E8C0843611F0893641F5AB
:100B6000F80137FE07C060817181828193810C5F3B
:100B70001F4F08C060817181072E000C880B990BF4
:100B80000E5F1F4FF32DFF763F2E97FF09C0909504
:100B90008095709561957F4F8F4F9F4FF0683F2EE6
:100BA0002AE030E0A3010E940A07882E861845C07B
:100BB000853731F4232D2F7EB22E2AE030E025C078
:100BC000932D997FB92E8F36C1F018F4883579F0BE
:100BD000B5C0803719F0883721F0B0C0E92FE06147
:100BE000BE2EB4FE0DC0FB2DF460BF2E09C034FE36
:100BF0000AC0292F2660B22E06C028E030E005C0CA
:100C000020E130E002C020E132E0F801B7FE07C089
:100C100060817181828193810C5F1F4F06C060816A
:100C2000718180E090E00E5F1F4FA3010E940A07D0
:100C3000882E8618FB2DFF773F2E36FE0DC0232D04
:100C40002E7FA22E891458F434FE0BC032FC09C04A
:100C5000832D8E7EA82E05C0B82CA32C03C0B82CE3
:100C600001C0B92CA4FE0FC0FE01E80DF11D80816A
:100C7000803321F49A2D997EA92E09C0A2FE06C0C8
:100C8000B394B39404C08A2D867809F0B394A3FC7E
:100C900011C0A0FE06C0B21488F4280C922C9B1838
:100CA0000EC0B21460F4B60180E290E00E94CE065D
:100CB000B394F7CFB21418F42B1802C0982C212C3F
:100CC000A4FE10C0B60180E390E00E94CE06A2FE12
:100CD00017C0A1FC03C088E790E002C088E590E05F
:100CE000B6010CC08A2D867859F0A1FE02C08BE2B5
:100CF00001C080E2A7FC8DE2B60190E00E94CE0622
:100D0000891438F4B60180E390E00E94CE069A94EC
:100D1000F7CF8A94F301E80DF11D8081B60190E0D0
:100D20000E94CE068110F5CF222009F442CEB601F2
:100D300080E290E00E94CE062A94F6CFF6018681EA
:100D4000978102C08FEF9FEF2B96E2E10C9484070E
:100D5000FC010590615070400110D8F78095909586
:100D60008E0F9F1F0895FC0161507040019001108B
:100D7000D8F7809590958E0F9F1F0895DC01FC0198
:100D8000672F71917723E1F7329704C07C916D93BF
:100D900070836291AE17BF07C8F308950F931F9336
:100DA000CF93DF93FB01238121FD03C08FEF9FEFE2
:100DB0002CC022FF16C046815781248135814217FD
:100DC000530744F4A081B1819D012F5F3F4F3183D0
:100DD00020838C93268137812F5F3F4F3783268373
:100DE00014C08B01EC01FB010084F185E02D099515
:100DF000892BE1F6D80116968D919C911797019653
:100E000017969C938E931697CE01DF91CF911F91E9
:100E10000F910895FA01AA27283051F1203181F16C
:100E2000E8946F936E7F6E5F7F4F8F4F9F4FAF4FF2
:100E3000B1E03ED0B4E03CD0670F781F891F9A1F05
:100E4000A11D680F791F8A1F911DA11D6A0F711DB9
:100E5000811D911DA11D20D009F468943F912AE0C5
:100E6000269F11243019305D3193DEF6CF010895AD
:100E7000462F4770405D4193B3E00FD0C9F7F6CFDE
:100E8000462F4F70405D4A3318F0495D31FD4052A6
:100E9000419302D0A9F7EACFB4E0A695979587953C
:100EA00077956795BA95C9F700976105710508951B
:100EB0009B01AC010A2E06945795479537952795C7
:100EC000BA95C9F7620F731F841F951FA01D08955F
:100ED0002F923F924F925F926F927F928F929F924A
:100EE000AF92BF92CF92DF92EF92FF920F931F9338
:100EF000CF93DF93CDB7DEB7CA1BDB0B0FB6F894E9
:100F0000DEBF0FBECDBF09942A88398848885F8428
:100F10006E847D848C849B84AA84B984C884DF8099
:100F2000EE80FD800C811B81AA81B981CE0FD11D7D
:100F30000FB6F894DEBF0FBECDBFED010895F89453
:020F4000FFCFE1
:100F42004242424242737373737300000001000015
:100F5200000000002E04000000000002000000005B
:100F62001C04000000005374617274757020737564
:100F7200636365737366756C0A0A206E5246323477
:100F82004C30312B20636F6E666967757265642021
:100F920061733A002D2D2D2D2D2D2D2D2D2D2D2D25
:100FA2002D2D2D2D2D2D2D2D2D2D2D2D2D2D2D2D6F
:100FB2002D2D2D2D2D2D2D2D2D2D2D2D2D2D2D008C
:100FC200434F4E4649470909307825780A00454E75
:100FD2005F4141090909307825780A00454E5F5280
:100FE20058414444520909307825780A005345543F
:100FF20055505F524554520909307825780A0052FB
:10100200465F4348090909307825780A0052465F4D
:1010120053455455500909307825780A00535441F4
:101022005455530909307825780A004645415455EC
:1010320052450909307825780A002D2D2D2D2D2DA8
:101042002D2D2D2D2D2D2D2D2D2D2D2D2D2D2D2DCE
:101052002D2D2D2D2D2D2D2D2D2D2D2D2D2D2D2DBE
:101062002D2D2D2D2D0A00474F4F440052656365EB
:1010720069766564206D6573736167653A202573CF
:101082000A004D6573736167652073656E74207322
:1010920075636365737366756C6C79004D65737304
:1010A2006167652073656E743A2025730A00666174
:0610B200696C656400009A
:00000001FF
