:100000000C945A000C946C000C946C000C946C00D2
:100010000C946C000C946C000C946C000C946C00B0
:100020000C946C000C946C000C946C000C946C00A0
:100030000C946C000C946C000C946C000C946C0090
:100040000C9480000C946C000C946C000C946C006C
:100050000C946C000C946C000C946C000C946C0070
:100060000C946C000C946C000C946C000C946C0060
:100070000C946C000C946C000C946C000C946C0050
:100080000C946C000C946C000C946C000C946C0040
:100090000C946C000C946C000C946C000C946C0030
:1000A0000C946C000C946C000C946C000C946C0020
:1000B0000C946C0011241FBECFEFD8E0DEBFCDBF83
:1000C00021E0A0E0B1E001C01D92A230B207E1F74B
:1000D0000E946E000C94BD000C940000109201016F
:1000E00010920001239A15B814BC85B5856085BDB2
:1000F00016BCEEE6F0E08081816080837894FFCFCB
:100100001F920F920FB60F9211248F939F9380919D
:10011000000190910101469704F12B9A8091000112
:1001200090910101869754F4809100019091010112
:100130000196909301018093000118C01092010173
:100140001092000115B88091000190910101019673
:10015000909301018093000109C08091000190916A
:100160000101019690930101809300019F918F916D
:0E0170000F900FBE0F901F901895F894FFCFC0
:00000001FF
