:100000000C945A000C9477000C9477000C947700B1
:100010000C9477000C9477000C9477000C94770084
:100020000C9477000C9477000C9477000C94770074
:100030000C9477000C9429010C9477000C947700B1
:100040000C9477000C9477000C9477000C94770054
:100050000C9477000C9477000C9477000C94770044
:100060000C9477000C9477000C9477000C94770034
:100070000C9477000C9477000C9477000C94770024
:100080000C9477000C9477000C9477000C94770014
:100090000C9477000C9477000C9477000C94770004
:1000A0000C9477000C9477000C9477000C947700F4
:1000B0000C94770011241FBECFEFD8E0DEBFCDBF78
:1000C00011E0A0E0B1E0E8EEFCE002C005900D9286
:1000D000A431B107D9F721E0A4E1B1E001C01D923C
:1000E000AB32B207E1F70E9408010C9472060C943F
:1000F000000084E480937C0085E880937A00EFE63A
:10010000F0E0808181608083E1E8F0E080818360BD
:10011000808387EF92EC909385008093840008950C
:100120001092C50087E68093C40088E18093C100E7
:1001300086E08093C2000895E0ECF0E0908195FFA6
:10014000FDCF8093C6000895CF93DF93EC018881A3
:10015000882331F021960E949C0089918111FBCF68
:10016000DF91CF91089510922A011092290124E085
:10017000EAE7F0E0A8E7B0E08081806480838081D6
:1001800086FDFDCF4D915C91119780912901909151
:100190002A01840F951F90932A01809329013FEF34
:1001A00080E792E0315080409040E1F700C00000CD
:1001B000215011F72091290130912A01ABEABAEAC6
:1001C0000E9457039695879590932A018093290161
:1001D0008091290190912A019F938F9381E091E072
:1001E0009F938F931F9284E18F9385E191E09F937A
:1001F0008F930E947A0385E191E00E94A4008DB75D
:100200009EB708960FB6F8949EBF0FBE8DBF089597
:100210000E9479000E94900087E091E00E94A40073
:100220002FE78AE196E0215080409040E1F700C03E
:1002300000000E94B30085E191E00E94A4002FEF2E
:1002400083ED90E3215080409040E1F700C0000032
:10025000F0CF1F920F920FB60F9211242F933F935E
:100260004F935F936F937F938F939F93AF93BF93BE
:10027000CF93EF93FF93809114018F5F80931401CC
:1002800090910001891348C0EAE7F0E08081806422
:100290008083808184FFFDCFEAE7F0E08081806188
:1002A0008083609178008091790070E0782B072E30
:1002B000000C880B990B0E944A0220E030E040E8D5
:1002C0005AE30E94D60220E030E44CE955E40E9453
:1002D000D60220E030E040E251E40E94A0010E94FA
:1002E0001202605F7F4FCB01880F991F64E670E0B8
:1002F0000E9443036AE070E00E944303C82F80E33A
:10030000860F0E949C0080E38C0F0E949C008AE074
:100310000E949C001092140180E186BDFF91EF9134
:10032000CF91BF91AF919F918F917F916F915F918D
:100330004F913F912F910F900FBE0F901F901895E6
:100340000E94B4010C949C020E94950258F00E94F5
:100350008E0240F029F45F3F29F00C948502511180
:100360000C94D0020C948B020E94AD0268F3992386
:10037000B1F3552391F3951B550BBB27AA276217A1
:100380007307840738F09F5F5F4F220F331F441FAE
:10039000AA1FA9F335D00E2E3AF0E0E832D09150E2
:1003A0005040E695001CCAF72BD0FE2F29D0660FCF
:1003B000771F881FBB1F261737074807AB07B0E812
:1003C00009F0BB0B802DBF01FF2793585F4F3AF018
:1003D0009E3F510578F00C9485020C94D0025F3F4B
:1003E000E4F3983ED4F3869577956795B795F7959E
:1003F0009F5FC9F7880F911D9695879597F9089586
:10040000E1E0660F771F881FBB1F62177307840721
:10041000BA0720F0621B730B840BBA0BEE1F88F730
:10042000E09508950E9419026894B1110C94D002CD
:1004300008950E94B50288F09F5798F0B92F992728
:10044000B751B0F0E1F0660F771F881F991F1AF0BF
:10045000BA95C9F714C0B13091F00E94CF02B1E053
:1004600008950C94CF02672F782F8827B85F39F052
:10047000B93FCCF3869577956795B395D9F73EF458
:1004800090958095709561957F4F8F4F9F4F089500
:10049000E89409C097FB3EF490958095709561951E
:1004A0007F4F8F4F9F4F9923A9F0F92F96E9BB27D4
:1004B0009395F695879577956795B795F111F8CF50
:1004C000FAF4BB0F11F460FF1BC06F5F7F4F8F4FBB
:1004D0009F4F16C0882311F096E911C0772321F0B1
:1004E0009EE8872F762F05C0662371F096E8862F49
:1004F00070E060E02AF09A95660F771F881FDAF7A0
:10050000880F9695879597F9089597F99F6780E8E2
:1005100070E060E008959FEF80EC089500240A9455
:100520001616170618060906089500240A941216CE
:100530001306140605060895092E0394000C11F401
:10054000882352F0BB0F40F4BF2B11F460FF04C0AE
:100550006F5F7F4F8F4F9F4F089557FD9058440F07
:10056000551F59F05F3F71F04795880F97FB991F12
:1005700061F09F3F79F087950895121613061406CF
:10058000551FF2CF4695F1DF08C01616170618065C
:10059000991FF1CF86957105610508940895E89437
:1005A000BB2766277727CB0197F908950E94E902B8
:1005B0000C949C020E948E0238F00E94950220F05A
:1005C000952311F00C9485020C948B0211240C9449
:1005D000D0020E94AD0270F3959FC1F3950F50E0D9
:1005E000551F629FF001729FBB27F00DB11D639FE5
:1005F000AA27F00DB11DAA1F649F6627B00DA11D8B
:10060000661F829F2227B00DA11D621F739FB00D30
:10061000A11D621F839FA00D611D221F749F3327A0
:10062000A00D611D231F849F600D211D822F762F39
:100630006A2F11249F5750409AF0F1F088234AF016
:10064000EE0FFF1FBB1F661F771F881F9150504082
:10065000A9F79E3F510580F00C9485020C94D002BE
:100660005F3FE4F3983ED4F3869577956795B79509
:10067000F795E7959F5FC1F7FE2B880F911D969523
:10068000879597F9089597FB072E16F4009407D0E5
:1006900077FD09D00E94660307FC05D03EF49095D3
:1006A00081959F4F0895709561957F4F0895A29F02
:1006B000B001B39FC001A39F700D811D1124911D36
:1006C000B29F700D811D1124911D0895AA1BBB1BA3
:1006D00051E107C0AA1FBB1FA617B70710F0A61B42
:1006E000B70B881F991F5A95A9F780959095BC0163
:1006F000CD010895AEE0B0E0E0E8F3E00C944906E7
:100700000D891E898F89988D26E02C831A83098391
:1007100097FF02C080E090E801979E838D83AE0131
:10072000455E5F4F698D7A8DCE0101960E94AA03C6
:100730004D815E8157FD0AC02F81388542175307CE
:100740000CF49A01F801E20FF31F10822E96E4E0F8
:100750000C946506ABE0B0E0E0EBF3E00C943B06F4
:100760006C017B018A01FC0117821682838181FF63
:10077000CCC1CE0101963C01F6019381F70193FDB6
:10078000859193FF81917F01882309F4BAC1853255
:1007900039F493FD859193FF81917F01853229F48E
:1007A000B60190E00E94A105E7CF912C212C312CBD
:1007B000FFE1F315D8F08B3279F038F4803279F01C
:1007C0008332A1F4232D20611DC08D3261F080336E
:1007D00069F4232D216016C0832D8260382EE32D0D
:1007E000E4603E2E2AC0F32DF8601DC037FC2DC0FA
:1007F00020ED280F2A3040F08E32B9F436FC81C14A
:10080000232D2064322E19C036FE06C08AE0989E41
:10081000200D1124922E11C0EAE02E9E200D1124ED
:10082000222EF32DF0623F2E08C08C3621F4832D4A
:100830008068382E02C0883641F4F70193FD859117
:1008400093FF81917F018111B3CF982F9F7D9554A4
:10085000933028F40C5F1F4F9FE399830DC08336BC
:1008600031F0833771F0833509F059C021C0F801A8
:10087000808189830E5F1F4F88248394912C5301BC
:1008800013C02801F2E04F0E511CF801A080B18086
:1008900036FE03C0692D70E002C06FEF7FEFC50127
:1008A0000E9496054C018201F32DFF773F2E16C062
:1008B000280122E0420E511CF801A080B18036FED2
:1008C00003C0692D70E002C06FEF7FEFC5010E9489
:1008D0008B054C01F32DF0683F2E820133FC1BC0C9
:1008E000822D90E088169906B0F4B60180E290E07F
:1008F0000E94A1052A94F4CFF50137FC859137FEBB
:1009000081915F01B60190E00E94A10521102A9417
:1009100021E0821A91088114910471F7E8C08436AD
:1009200011F0893641F5F80137FE07C06081718109
:10093000828193810C5F1F4F08C060817181072EF7
:10094000000C880B990B0E5F1F4FF32DFF763F2E87
:1009500097FF09C090958095709561957F4F8F4F57
:100960009F4FF0683F2E2AE030E0A3010E94DD0592
:10097000882E861845C0853731F4232D2F7EB22E60
:100980002AE030E025C0932D997FB92E8F36C1F033
:1009900018F4883579F0B5C0803719F0883721F020
:1009A000B0C0E92FE061BE2EB4FE0DC0FB2DF46097
:1009B000BF2E09C034FE0AC0292F2660B22E06C001
:1009C00028E030E005C020E130E002C020E132E064
:1009D000F801B7FE07C060817181828193810C5F4D
:1009E0001F4F06C06081718180E090E00E5F1F4F55
:1009F000A3010E94DD05882E8618FB2DFF773F2E70
:100A000036FE0DC0232D2E7FA22E891458F434FEFD
:100A10000BC032FC09C0832D8E7EA82E05C0B82CD9
:100A2000A32C03C0B82C01C0B92CA4FE0FC0FE013A
:100A3000E80DF11D8081803321F49A2D997EA92E35
:100A400009C0A2FE06C0B394B39404C08A2D867870
:100A500009F0B394A3FC11C0A0FE06C0B21488F440
:100A6000280C922C9B180EC0B21460F4B60180E2E0
:100A700090E00E94A105B394F7CFB21418F42B189C
:100A800002C0982C212CA4FE10C0B60180E390E097
:100A90000E94A105A2FE17C0A1FC03C088E790E058
:100AA00002C088E590E0B6010CC08A2D867859F026
:100AB000A1FE02C08BE201C080E2A7FC8DE2B6017C
:100AC00090E00E94A105891438F4B60180E390E01B
:100AD0000E94A1059A94F7CF8A94F301E80DF11DC5
:100AE0008081B60190E00E94A1058110F5CF2220FF
:100AF00009F442CEB60180E290E00E94A1052A945A
:100B0000F6CFF6018681978102C08FEF9FEF2B967B
:100B1000E2E10C945706FC01059061507040011011
:100B2000D8F7809590958E0F9F1F0895FC01615016
:100B3000704001900110D8F7809590958E0F9F1FFF
:100B400008950F931F93CF93DF93FB01238121FD22
:100B500003C08FEF9FEF2CC022FF16C04681578144
:100B6000248135814217530744F4A081B1819D014E
:100B70002F5F3F4F318320838C93268137812F5FF6
:100B80003F4F3783268314C08B01EC01FB010084A7
:100B9000F185E02D0995892BE1F6D80116968D9106
:100BA0009C911797019617969C938E931697CE015A
:100BB000DF91CF911F910F910895FA01AA27283054
:100BC00051F1203181F1E8946F936E7F6E5F7F4F1A
:100BD0008F4F9F4FAF4FB1E03ED0B4E03CD0670F96
:100BE000781F891F9A1FA11D680F791F8A1F911DE9
:100BF000A11D6A0F711D811D911DA11D20D009F439
:100C000068943F912AE0269F11243019305D31937A
:100C1000DEF6CF010895462F4770405D4193B3E063
:100C20000FD0C9F7F6CF462F4F70405D4A3318F00A
:100C3000495D31FD4052419302D0A9F7EACFB4E0BB
:100C4000A6959795879577956795BA95C9F7009773
:100C50006105710508959B01AC010A2E0694579514
:100C6000479537952795BA95C9F7620F731F841F6B
:100C7000951FA01D08952F923F924F925F926F9201
:100C80007F928F929F92AF92BF92CF92DF92EF921C
:100C9000FF920F931F93CF93DF93CDB7DEB7CA1B9D
:100CA000DB0B0FB6F894DEBF0FBECDBF09942A88C8
:100CB000398848885F846E847D848C849B84AA8470
:100CC000B984C884DF80EE80FD800C811B81AA81FD
:100CD000B981CE0FD11D0FB6F894DEBF0FBECDBFC8
:080CE000ED010895F894FFCF27
:100CE800FA2533640D0A00436F6E6E65637465649C
:040CF800210D0A00C0
:00000001FF
